:1008660020200020202020202020202020202020A2
:1008760020202000594553004E4F200054696D65D5
:100886003A20203A20203A202000543A20202043C3
:100896002020563A202020206D4C0054656D70654E
:1008A6007261747572653A202020430054656D703C
:1008B60020436F6E74726F6C3A0042757A7A657275
:0A08C60020436F6E74726F6C3A00ED
:10066C0012074DE534FB3395E0FA7525027D067FC4
:10067C0001120DB8E535FB3395E0FA7525027D09BD
:10068C007F01120DB8E536FB3395E0FA7525027D36
:10069C000C7F01120DB8120ECE120C698F168E152E
:1006AC008D148C137FCD7ECC7DCC7C3DAB16AA15E6
:1006BC00A914A8131200AE601B4019AF16AE15ADED
:1006CC0014AC13120165AB07AA067525027D037FD6
:1006DC0002120DB8120A75C3EF9512F51BEE9511A7
:1006EC00F51AED9510F519EC950FF518E4FFFEFDD4
:1006FC00FCAB1BAA1AA919A818D31202AA5010E411
:10070C00F51BF51AF519F518752504FBFA802AAFB7
:10071C001BAE1AAD19AC18E41201277B007A407994
:10072C001D7844120011120165E48F1B8E1AF51905
:10073C00F518AA1AAB1B7525047D0B7F02120DB898
:01074C00228A
:10058200E517B4020A051CE51CB40603751C03E555
:1005920017B4032A7431251CF806D3E53464809419
:1005A200974003E4F534D3E535648094BB4003E41B
:1005B200F535D3E536648094BB4003E4F536E517A0
:1005C200B4042A7431251CF816C3E534648094807F
:1005D2005003753417C3E535648094805003753534
:1005E2003BC3E53664809480500375363BE51CB40A
:1005F2000314E50DB4010F7BFF7A0879667D067F4F
:1006020001120D338011E534FB3395E0FA752502B2
:100612007D067F01120DB8E51CB40414E50DB4018A
:100622000F7BFF7A0879667D097F01120D338011F5
:10063200E535FB3395E0FA7525027D097F01120D40
:10064200B8E51CB40512E50DB4010D7BFF7A0879FB
:10065200667D0C7F01020D33E536FB3395E0FA75BA
:0A06620025027D0C7F01120DB82265
:100A2F00E517B4020EE50C240AF50CC394644003D9
:100A3F00750C63E517B4030C050CE50CC394644007
:100A4F0003750C63E517B4040E74F6250CF50CC38F
:100A5F0094005003E4F50CE50CFB7A007525027D3C
:060A6F000D7F02020DB82C
:100DF2007BFF7A0879697D017F01120D337BFF7ACF
:0A0E02000879697D017F02020D33BB
:1009E500E50B6041E50C2405FDE433FCE412012C24
:1009F500AB16AA15A914A8131200AE60064004C2CE
:100A0500978002D297E50C24FBFDE434FFFCE41249
:100A1500012CAB16AA15A914A8131200AE5003C2D7
:0A0A25009622D29622D296D2972292
:100D0D00E50A6021E53475F0031201E6AFF0EF70EE
:100D1D0014C3E53664809482500BE53570077FD09F
:060D2D007E07120D782282
:100C9500E517B40203750B01E517B40303E4F50B7F
:100CA500E50B7BFF60067A08797A80047A08797EFD
:080CB5007D017F02120D3322C4
:100CBD00E517B40203750A01E517B40303E4F50A59
:100CCD00E50A7BFF60067A08797A80047A08797ED6
:080CDD007D017F02120D33229C
:0C0EDB00120A758F128E118D108C0F22E0
:10043F00120E99120F3C1202CE7F647E00120E84B0
:10044F00120E577BFF7A0879827D017F01120D33DF
:10045F007BFF7A0879907D017F02120D337BDF7D60
:10046F00057F02120EFDE4F50E7F01120C398F0C81
:10047F007F02120C398F0B7F03120C398F0A120E69
:10048F00DB1209318F17E51764016003020549E597
:10049F000E7012750E01751C037BFF7A0879697D4A
:1004AF00017F02805BE50EB4011C750E021202CEB5
:1004BF00120DF27BFF7A0879A17D017F02120D33B5
:1004CF007BDF7D0F806FE50EB40219750E03120DE1
:1004DF00F2AD0C7F01120D567BFF7A0879B27D01C8
:1004EF007F01801CE50EB4031C750E04120DF2ADD6
:1004FF000B7F02120D567BFF7A0879C07D017F01B9
:10050F00120D338035E50E6404702FF50E120DF2C7
:10051F00AD0A7F03120D567BFF7A0879827D017F2A
:10052F0001120D337BFF7A0879907D017F02120D46
:10053F00337BDF7D057F02120EFDE50E14601C1468
:10054F00601F1460221460252404600302049012BB
:10055F00066C1209E5120D0D0204901205820204B9
:10056F0090120A2F020490120C95020490120CBDE7
:03057F00020490E3
:03000B00020B2BBA
:090B2B00C0E0C0D075D000C00785
:100B3400758A18758CFC0509E50970020508C394CB
:100B4400F4E50894014012750800750900E50D707C
:090B5400047F0180027F008F0D77
:070B5D00D007D0D0D0E03238
:060EBF00C2A58F80D2A73E
:080EC5007F027EEFDEFEDFFC80
:010ECD002202
:0A0EF300C2A6120EBFC2A7020EC570
:100D9A00CFCDCFCECCCE1202477C007D0A120247BD
:040DAA00ED2430FF05
:0A0DAE00D2A6120EBFC2A7020EC5A6
:100E6E00AE07BE0104ED148006BE0209ED243F4418
:060E7E0080FF120EF322BA
:100E99007F38120EF37F0C120EF37F06120EF37FCA
:040EA90001020EF341
:0A0EFD00AC03120E6EAF04020DAE3E
:060D33008B218A228923B6
:100D3900120E6EE4FDAB21AA22A9238D82758300D0
:0C0D4900120208FF6006120DAE0D80E9DA
:010D5500227B
:0C0BD5007F0AEA24FFFDE434FFFC7E00F0
:080BE1008E268F278C288D2938
:100BE9007F017E00E4FBEBC39529E5286480F87456
:0E0BF9008098500AAC26AD271202350B80E81A
:010C070022CA
:040DB8008A238B24DB
:100DBC00120E6EAA25EAD39400400D120BD5AC236B
:080DCC00AD24120D9A1A80ED0E
:010DD40022FC
:100AF100120E6EC3EA64809480400B7F2B120DAE00
:100B01008A2F8B30800E7F2D120DAEC3E49BF53002
:100B1100E49AF52FAA2EEAD39400400D120BD5AC1E
:090B21002FAD30120D9A1A80ED7F
:010B2A0022A8
:040B64008A3A8B3B03
:100B6800120E6EAA3CEAD3940040297F10120BD7CC
:100B7800AC3AAD3BCFCDCFCECCCE120247EF540F1F
:100B8800FEC3940AEE5004243080022437FF120D6D
:040B9800AE1A80D140
:010B9C002236
:040B9D008A3F8B40C0
:100BA100120E6EAA41EAD394004028EA24FFFDE424
:100BB10034FFFC7F027E00120BE1AC3FAD40CFCD94
:100BC100CFCECCCE120247EF54012430FF120DAE2E
:030BD1001A80D2B5
:010BD40022FE
:090F07000731130B100B3B3706F8
:050F3C00C2B5C2B6229F
:0508D0002DFDEE3CFCD3
:0608D5008C218D22AB070F
:1008DB00C2B500C2B600D2B500E4FD74017E00A81B
:1008EB0005088005C333CE33CED8F9FFEBF582EF85
:1008FB00558224FF92B4D2B6C2B60DBD08DDE4FD1D
:10090B0074017E00A805088005C333CE33CED8F919
:10091B00FFE5215EFEE5225F4E24FF92B4D2B6C204
:05092B00B60DBD08DB64
:0109300022A4
:02099200AD07AF
:10099400E4F9430501C2B500C2B600D2B500FB7448
:1009A400017E00A803088005C333CE33CED8F9FFF7
:1009B400EDF582EF558224FF92B4C2B6D2B60BBBDA
:1009C40008DDE4FBD2B6C2B630B40D7401A8030846
:1009D4008002C333D8FC42010BBB08E8C2B4AF01A8
:0109E40022F0
:1002CE00E4FDFC7F8E1208D5E53175F00A1201E6C9
:1002DE00FF3395E0FEEFC4F8540FC868FFEEC45428
:1002EE00F048FEE53175F00A1201E6ADF0ED3395FA
:1002FE00E0FCEF7F8C1208D0E53275F00A1201E6B1
:10030E00FF3395E0FEEFC4F8540FC868FFEEC454F7
:10031E00F048FEE53275F00A1201E6ADF0ED3395C8
:10032E00E0FCEF7F881208D0E53375F00A1201E683
:10033E00FF3395E0FEEFC4F8540FC868FFEEC454C7
:10034E00F048FEE53375F00A1201E6ADF0ED339597
:10035E00E0FCEF2DFDEE3CFC7F861208D5E53475F2
:10036E00F00A1201E6FF3395E0FEEFC4F8540FC811
:10037E0068FFEEC454F048FEE53475F00A1201E64B
:10038E00ADF0ED3395E0FCEF2DFDEE3CFC7F8412DD
:10039E0008D5E53575F00A1201E6FF3395E0FEEF5C
:1003AE00C4F8540FC868FFEEC454F048FEE5357526
:1003BE00F00A1201E6ADF0ED3395E0FCEF2DFDEE07
:1003CE003CFC7F821208D5E53675F00A1201E6FF75
:1003DE003395E0FEEFC4F8540FC868FFEEC454F036
:1003EE0048FEE53675F00A1201E6ADF0ED3395E004
:1003FE00FCEF2DFDEE3CFC7F801208D5E53775F045
:10040E000A1201E6FF3395E0FEEFC4F8540FC868F8
:10041E00FFEEC454F048FEE53775F00A1201E6AD62
:10042E00F0ED3395E0FCEF2DFDEE3CFC7F8A0208EB
:01043E00D5E8
:10074D007F8C120992EFC4540F75F00AA4FEEF547A
:10075D000F2EF5317F88120992EFC4540F75F00AF0
:10076D00A4FEEF540F2EF5327F86120992EFC4547A
:10077D000F75F00AA4FEEF540F2EF5337F84120986
:10078D0092EFC4540F75F00AA4FEEF540F2EF534FA
:10079D007F82120992EFC4540F75F00AA4FEEF5434
:1007AD000F2EF5357F80120992EFC4540F75F00AA4
:1007BD00A4FEEF540F2EF5367F8A120992EFC45422
:0C07CD000F75F00AA4FEEF540F2EF53754
:0107D90022FD
:100E8400EF4E6010007D027CC7DCFEDDFCEF1F70BE
:040E9400EF1E80ECE1
:010E98002237
:050F2400007F1DDFFE4F
:010F290022A5
:050F2A00007FE3DFFE83
:010F2F00229F
:040F41007F02DFFE4E
:010F45002289
:050F3000007F14DFFE4C
:010F35002299
:01000A0022D3
:10093100E4F52120B1137F14FE120E8430B1FD7F46
:10094100147E00120E8475210120B0147F147E00E4
:10095100120E8430B0FD7F147E00120E84752102C8
:1009610020B2147F147E00120E8430B2FD7F147EFB
:1009710000120E8475210320B3147F147E00120E21
:100981008430B3FD7F147E00120E84752104AF21E3
:010991002243
:100AB6008542431209318F42E543B40107E542708E
:100AC600037F0122E543B40207E54270037F022259
:100AD600E543B40307E54270037F0322E543B4040C
:0A0AE60007E54270037F04227F0041
:010AF00022E3
:100E57005389F0438901758A18758CFCC28DD28C31
:070E6700D2A9D2AFC2B922EB
:100D56008F218D22120F1B7FA0120C08120EE7AFF7
:100D660021120C08120EE7AF22120C08120EE7022F
:020D7600000378
:020C39008F2109
:100C3B00120F1B7FA0120C08120EE7AF21120C082B
:100C4B00120EE7120F1B7FA1120C08120EE7120CEB
:0D0C5B00E58F227F01120F11120003AF225E
:010C68002269
:0D0ECE00120E0C7FCC120E267F44020E2661
:100C6900120E0C7FCC120E267FBE120E26120DD547
:100C79008F21120DD5EFFEE521FFFDAC06EC120127
:0B0C89002CE4FBFA7980784112001186
:010C9400223D
:090F1B00D2A0D2A1C2A0C2A12201
:07000300C2A0D2A1D2A0228D
:020C0800A9073A
:100C0A00E4FBFAAF0374807E00A807088006CEA230
:100C1A00E713CE13D8F8FFE9FDEF5D24FF92A0D2C7
:0E0C2A00A1C2A10BBB00010AEB64084A70D501
:010C38002299
:100CE500E4FFD2A0FDFCD2A130A00FAE057480A810
:100CF50006088002C313D8FC4207C2A10DBD00013E
:070D05000CED64084C70DFE7
:010D0C0022C4
:0A0F1100EF24FF92A0D2A1C2A1229A
:0B0EE700D2A0D2A1A2A0E433FFC2A160
:010EF20022DD
:100E0C00D2B7C2B77FF7DFFED2B77F20DFFEA2B723
:090E1C00E433FE7FF7DFFEAF06B0
:010E250022AA
:100EAD00C2B77E04DEFEEF24FF92B77E18DEFED2BF
:010EBD00B77D
:010EBE002211
:100E3F00C2B77F02DFFED2B77F02DFFEA2B7E43375
:070E4F00FE7F18DFFEAF0675
:010E56002279
:020E2600AD0716
:100E2800E4FC7401A804088002C333D8FC5DFF12F7
:060E38000EAD0CBC08EC3D
:010E3E002291
:100DD500E4FDFC120E3FEF600D7401A804088002CB
:0C0DE500C333D8FC42050CBC08E9AF0584
:010DF10022DF
:050F3600007FF7DFFE63
:010F3B002293
:040D7800AD07AC0611
:100D7C00E4FBFAED25E0FFEC33FEC3EB9FEA9E505B
:0D0D8C000CB295120F360BBB00010A80E679
:010D99002237
:030F460000002286
:100A7500D292120F46C2937F007E007D007C00D289
:100A8500AF2092FDC2AFE4FBD29378011202BBC244
:100A95009330920DEF2401FFE43EFEE43DFDE43C7E
:100AA500FC0BBB18E3D293ED6480FD120F46C29395
:010AB500221E
:10000E000201DBEC5D046005E8590470030201D1C6
:10001E0012019C580460F6EC4860F2EC7004FDFE90
:10002E00FF22C860DB2481C85009C39860025006C5
:10003E000201D89850CAF582E9294B4A7005AB8265
:10004E000201C775F0007C1A7880C3EF9BEE9AED23
:10005E0099400DC3EF9BFFEE9AFEED99FDE842F03D
:10006E00DC23ACF0D0E0FFD0E0FED0E0FDAB822090
:10007E00E7101BEB60BAEC2CFCEF33FFEE33FEED1A
:10008E0033FD0201B3E803F830E705C0F075F00068
:10009E00EF2FFFEE33FEED33FD40B830E7C280AAFE
:1000AE0074F8CC6480CCC86480C8F58204604FC3F9
:1000BE00EB9FF5F0EA9E42F0E99D42F0E89C45F098
:1000CE00603C501DE5825FFFE582D313CB5BCBF422
:1000DE002B5582FB50280ABA002409B9002008804B
:1000EE001DE5825BFBE582D313CF5FCFF4C3132FE5
:1000FE005582FF50090EBE00050DBD00010CC3EB6D
:10010E009FF5F0EA9E42F0E99D42F0E89C45F060D2
:09011E0007CC4820E701B3EC22F4
:1001270075F020800E75F010800575F0087D007E53
:10013700007F003392D530D50312029CEC33401078
:10014700EF33FFEE33FEED33FDEC33FCD5F0ED225C
:0E015700E5F0247EA2D513CC92E7CDCEFF2298
:10016500EDD2E7CD33EC3392D524814006E4FFFE92
:10017500FDFC22FCE4CFCECDCC24E0501174FF80F1
:10018500EDC3CC13CCCD13CDCE13CECF13CF04708E
:07019500F030D5DE02029CF0
:10019C00E9D2E7C933E833F892D5EDD2E7CD33ECA9
:0701AC0033FC5002B2D52222
:1001B300EC30E7100FBF000C0EBE00080DBD0004AD
:1001C3000BEB6014A2D5EB13FCED92E7FD2274FF59
:1001D300FCFDFEFF22E480F8A2D574FF13FC7D80B2
:0301E300E480EFC6
:030000000207DA1A
:0C07DA00787FE4F6D8FD75814302082109
:1001E600C2D530F707B2D563F0FF05F030E70CB2A1
:1001F600D5F4048463F0FF05F080018430D502F461
:020206000422D0
:10020800BB010CE58229F582E5833AF583E02250AB
:1002180006E92582F8E622BBFE06E92582F8E222F5
:0D022800E58229F582E5833AF583E493220F
:10023500EF8DF0A4A8F0CF8CF0A428CE8DF0A42EDD
:02024500FE2297
:10024700BC000BBE0029EF8DF084FFADF022E4CC9B
:10025700F875F008EF2FFFEE33FEEC33FCEE9DEC64
:10026700984005FCEE9DFE0FD5F0E9E4CEFD22EDAA
:10027700F8F5F0EE8420D21CFEADF075F008EF2FF4
:10028700FFED33FD4007985006D5F0F222C398FDE5
:050297000FD5F0EA2282
:0E029C00C3E49FFFE49EFEE49DFDE49CFC2273
:1002AA00EB9FF5F0EA9E42F0E99D42F0E89C45F0AA
:0102BA002221
:1002BB00E8600FEFC333FFEE33FEED33FDEC33FCA1
:0302CB00D8F12245
:1007E60002043FE493A3F8E493A34003F68001F2E6
:1007F60008DFF48029E493A3F85407240CC8C33314
:10080600C4540F4420C8834004F456800146F6DFE2
:10081600E4800B0102040810204080900F07E47E5C
:10082600019360BCA3FF543F30E509541FFEE493D7
:10083600A360010ECF54C025E060A840B8E493A39E
:10084600FAE493A3F8E493A3C8C582C8CAC583CAC9
:10085600F0A3C8C582C8CAC583CADFE9DEE780BE81
:010F100000E0
:00000001FF
